{
  "contractName": "NFLT",
  "abi": [
    {
      "inputs": [],
      "payable": false,
      "stateMutability": "nonpayable",
      "type": "constructor"
    },
    {
      "constant": true,
      "inputs": [],
      "name": "totalSupply",
      "outputs": [
        {
          "internalType": "uint256",
          "name": "",
          "type": "uint256"
        }
      ],
      "payable": false,
      "stateMutability": "view",
      "type": "function"
    }
  ],
  "bytecode": "0x6080604052348015600f57600080fd5b506112c06000819055506084806100276000396000f3fe6080604052348015600f57600080fd5b506004361060285760003560e01c806318160ddd14602d575b600080fd5b60336049565b6040518082815260200191505060405180910390f35b6000548156fea265627a7a7231582030253a2fe10f782abff3c9253f77f58c5a2040136e7deb6d5be15eb09ef1fd7e64736f6c63430005100032",
  "source": "pragma solidity >=0.4.21 <0.7.0;\n\n//import \"@openzeppelin/contracts/token/ERC721/ERC721.sol\";\n\n\ncontract NFLT {\n\n\n  /*constructor() ERC721(name(), symbol()) public {\n\n  }\n\n  constructor() {\n\n  }*/\n  uint256 public totalSupply;\n\n  constructor() public {\n    totalSupply = 4800;\n\n  }\n\n}\n",
  "sourcePath": "/Users/witmac/Documents/webdev/webbase/client/src/contracts/NFLT.sol",
  "compiler": {
    "name": "solc",
    "version": "0.5.16+commit.9c3226ce.Emscripten.clang"
  },
  "schemaVersion": "3.3.2",
  "updatedAt": "2020-11-22T23:22:36.250Z",
  "networkType": "ethereum",
  "devdoc": {
    "methods": {}
  },
  "userdoc": {
    "methods": {}
  }
}