{
  "contractName": "NFLT",
  "abi": [
    {
      "inputs": [],
      "stateMutability": "nonpayable",
      "type": "constructor"
    },
    {
      "inputs": [],
      "name": "totalSupply",
      "outputs": [
        {
          "internalType": "uint256",
          "name": "",
          "type": "uint256"
        }
      ],
      "stateMutability": "view",
      "type": "function"
    }
  ],
  "bytecode": "0x6080604052348015600f57600080fd5b506112c06000819055506085806100276000396000f3fe6080604052348015600f57600080fd5b506004361060285760003560e01c806318160ddd14602d575b600080fd5b60336049565b6040518082815260200191505060405180910390f35b6000548156fea2646970667358221220ec6b95ccb81939df8143edef0d5a1f9f72f233ecea4fc098ced4a65ed189bdee64736f6c634300060c0033",
  "immutableReferences": {},
  "source": "pragma solidity >=0.4.21 <0.7.0;\n\n//import \"@openzeppelin/contracts/token/ERC721/ERC721.sol\";\n\n\ncontract NFLT {\n\n\n  /*constructor() ERC721(name(), symbol()) public {\n\n  }\n\n  constructor() {\n\n  }*/\n  uint256 public totalSupply;\n\n  constructor() public {\n    totalSupply = 4800;\n\n  }\n\n}\n",
  "sourcePath": "/Users/witmac/Documents/webdev/webbase/client/src/contracts/NFLT.sol",
  "compiler": {
    "name": "solc",
    "version": "0.6.12+commit.27d51765.Emscripten.clang"
  },
  "schemaVersion": "3.3.2",
  "updatedAt": "2020-11-22T23:11:27.213Z",
  "devdoc": {
    "kind": "dev",
    "methods": {},
    "version": 1
  },
  "userdoc": {
    "kind": "user",
    "methods": {},
    "version": 1
  }
}